{
  "_format": "hh-sol-artifact-1",
  "contractName": "SimpleBank",
  "sourceName": "contracts/SimpleBank.sol",
  "abi": [
    {
      "inputs": [],
      "name": "checkBalance",
      "outputs": [
        {
          "internalType": "uint256",
          "name": "",
          "type": "uint256"
        }
      ],
      "stateMutability": "view",
      "type": "function"
    },
    {
      "inputs": [],
      "name": "createAccount",
      "outputs": [],
      "stateMutability": "nonpayable",
      "type": "function"
    },
    {
      "inputs": [],
      "name": "deposit",
      "outputs": [],
      "stateMutability": "payable",
      "type": "function"
    },
    {
      "inputs": [
        {
          "internalType": "address",
          "name": "to",
          "type": "address"
        },
        {
          "internalType": "uint256",
          "name": "amount",
          "type": "uint256"
        }
      ],
      "name": "transfer",
      "outputs": [],
      "stateMutability": "nonpayable",
      "type": "function"
    },
    {
      "inputs": [
        {
          "internalType": "uint256",
          "name": "amount",
          "type": "uint256"
        }
      ],
      "name": "withdraw",
      "outputs": [],
      "stateMutability": "nonpayable",
      "type": "function"
    }
  ],
  "bytecode": "0x608060405234801561001057600080fd5b50610b25806100206000396000f3fe60806040526004361061004a5760003560e01c80632e1a7d4d1461004f5780639dca362f14610078578063a9059cbb1461008f578063c71daccb146100b8578063d0e30db0146100e3575b600080fd5b34801561005b57600080fd5b506100766004803603810190610071919061080e565b6100ed565b005b34801561008457600080fd5b5061008d6102a3565b005b34801561009b57600080fd5b506100b660048036038101906100b19190610899565b6103b8565b005b3480156100c457600080fd5b506100cd610610565b6040516100da91906108e8565b60405180910390f35b6100eb6106e9565b005b336000808273ffffffffffffffffffffffffffffffffffffffff1673ffffffffffffffffffffffffffffffffffffffff16815260200190815260200160002060010160009054906101000a900460ff1661017c576040517f08c379a000000000000000000000000000000000000000000000000000000000815260040161017390610960565b60405180910390fd5b816000803373ffffffffffffffffffffffffffffffffffffffff1673ffffffffffffffffffffffffffffffffffffffff168152602001908152602001600020600001541015610200576040517f08c379a00000000000000000000000000000000000000000000000000000000081526004016101f7906109cc565b60405180910390fd5b816000803373ffffffffffffffffffffffffffffffffffffffff1673ffffffffffffffffffffffffffffffffffffffff16815260200190815260200160002060000160008282546102519190610a1b565b925050819055503373ffffffffffffffffffffffffffffffffffffffff166108fc839081150290604051600060405180830381858888f1935050505015801561029e573d6000803e3d6000fd5b505050565b6000803373ffffffffffffffffffffffffffffffffffffffff1673ffffffffffffffffffffffffffffffffffffffff16815260200190815260200160002060010160009054906101000a900460ff1615610332576040517f08c379a000000000000000000000000000000000000000000000000000000000815260040161032990610a9b565b60405180910390fd5b604051806040016040528060008152602001600115158152506000803373ffffffffffffffffffffffffffffffffffffffff1673ffffffffffffffffffffffffffffffffffffffff1681526020019081526020016000206000820151816000015560208201518160010160006101000a81548160ff021916908315150217905550905050565b336000808273ffffffffffffffffffffffffffffffffffffffff1673ffffffffffffffffffffffffffffffffffffffff16815260200190815260200160002060010160009054906101000a900460ff16610447576040517f08c379a000000000000000000000000000000000000000000000000000000000815260040161043e90610960565b60405180910390fd5b826000808273ffffffffffffffffffffffffffffffffffffffff1673ffffffffffffffffffffffffffffffffffffffff16815260200190815260200160002060010160009054906101000a900460ff166104d6576040517f08c379a00000000000000000000000000000000000000000000000000000000081526004016104cd90610960565b60405180910390fd5b826000803373ffffffffffffffffffffffffffffffffffffffff1673ffffffffffffffffffffffffffffffffffffffff16815260200190815260200160002060000154101561055a576040517f08c379a0000000000000000000000000000000000000000000000000000000008152600401610551906109cc565b60405180910390fd5b826000803373ffffffffffffffffffffffffffffffffffffffff1673ffffffffffffffffffffffffffffffffffffffff16815260200190815260200160002060000160008282546105ab9190610a1b565b92505081905550826000808673ffffffffffffffffffffffffffffffffffffffff1673ffffffffffffffffffffffffffffffffffffffff16815260200190815260200160002060000160008282546106039190610abb565b9250508190555050505050565b6000336000808273ffffffffffffffffffffffffffffffffffffffff1673ffffffffffffffffffffffffffffffffffffffff16815260200190815260200160002060010160009054906101000a900460ff166106a1576040517f08c379a000000000000000000000000000000000000000000000000000000000815260040161069890610960565b60405180910390fd5b6000803373ffffffffffffffffffffffffffffffffffffffff1673ffffffffffffffffffffffffffffffffffffffff1681526020019081526020016000206000015491505090565b336000808273ffffffffffffffffffffffffffffffffffffffff1673ffffffffffffffffffffffffffffffffffffffff16815260200190815260200160002060010160009054906101000a900460ff16610778576040517f08c379a000000000000000000000000000000000000000000000000000000000815260040161076f90610960565b60405180910390fd5b346000803373ffffffffffffffffffffffffffffffffffffffff1673ffffffffffffffffffffffffffffffffffffffff16815260200190815260200160002060000160008282546107c99190610abb565b9250508190555050565b600080fd5b6000819050919050565b6107eb816107d8565b81146107f657600080fd5b50565b600081359050610808816107e2565b92915050565b600060208284031215610824576108236107d3565b5b6000610832848285016107f9565b91505092915050565b600073ffffffffffffffffffffffffffffffffffffffff82169050919050565b60006108668261083b565b9050919050565b6108768161085b565b811461088157600080fd5b50565b6000813590506108938161086d565b92915050565b600080604083850312156108b0576108af6107d3565b5b60006108be85828601610884565b92505060206108cf858286016107f9565b9150509250929050565b6108e2816107d8565b82525050565b60006020820190506108fd60008301846108d9565b92915050565b600082825260208201905092915050565b7f4163636f756e7420646f6573206e6f742065786973742e000000000000000000600082015250565b600061094a601783610903565b915061095582610914565b602082019050919050565b600060208201905081810360008301526109798161093d565b9050919050565b7f496e73756666696369656e742062616c616e63652e0000000000000000000000600082015250565b60006109b6601583610903565b91506109c182610980565b602082019050919050565b600060208201905081810360008301526109e5816109a9565b9050919050565b7f4e487b7100000000000000000000000000000000000000000000000000000000600052601160045260246000fd5b6000610a26826107d8565b9150610a31836107d8565b9250828203905081811115610a4957610a486109ec565b5b92915050565b7f4163636f756e7420616c7265616479206578697374732e000000000000000000600082015250565b6000610a85601783610903565b9150610a9082610a4f565b602082019050919050565b60006020820190508181036000830152610ab481610a78565b9050919050565b6000610ac6826107d8565b9150610ad1836107d8565b9250828201905080821115610ae957610ae86109ec565b5b9291505056fea264697066735822122033a33e988078e78813c4d4b94e0cc6823efc852592a140a7288c3c85f2b0146d64736f6c63430008180033",
  "linkReferences": {},
  "deployedLinkReferences": {}
}